{
  "_format": "hh-sol-artifact-1",
  "contractName": "Prj",
  "sourceName": "contracts/Prj.sol",
  "abi": [
    {
      "inputs": [
        {
          "internalType": "address",
          "name": "frdkey",
          "type": "address"
        },
        {
          "internalType": "string",
          "name": "name",
          "type": "string"
        }
      ],
      "name": "addfrd",
      "outputs": [],
      "stateMutability": "nonpayable",
      "type": "function"
    },
    {
      "inputs": [
        {
          "internalType": "string",
          "name": "grpname",
          "type": "string"
        }
      ],
      "name": "addgrp",
      "outputs": [],
      "stateMutability": "nonpayable",
      "type": "function"
    },
    {
      "inputs": [],
      "name": "doiexist",
      "outputs": [
        {
          "internalType": "bool",
          "name": "",
          "type": "bool"
        }
      ],
      "stateMutability": "view",
      "type": "function"
    },
    {
      "inputs": [
        {
          "internalType": "string",
          "name": "grpname",
          "type": "string"
        }
      ],
      "name": "feed",
      "outputs": [
        {
          "components": [
            {
              "internalType": "address",
              "name": "sender",
              "type": "address"
            },
            {
              "internalType": "uint256",
              "name": "timestamp",
              "type": "uint256"
            },
            {
              "internalType": "string",
              "name": "txt",
              "type": "string"
            }
          ],
          "internalType": "struct Prj.msgb[]",
          "name": "",
          "type": "tuple[]"
        }
      ],
      "stateMutability": "view",
      "type": "function"
    },
    {
      "inputs": [],
      "name": "getallgrp",
      "outputs": [
        {
          "components": [
            {
              "internalType": "bytes32",
              "name": "grpcode",
              "type": "bytes32"
            },
            {
              "internalType": "string",
              "name": "name",
              "type": "string"
            }
          ],
          "internalType": "struct Prj.grp[]",
          "name": "",
          "type": "tuple[]"
        }
      ],
      "stateMutability": "view",
      "type": "function"
    },
    {
      "inputs": [],
      "name": "getfrdlist",
      "outputs": [
        {
          "components": [
            {
              "internalType": "address",
              "name": "pubkey",
              "type": "address"
            },
            {
              "internalType": "string",
              "name": "name",
              "type": "string"
            }
          ],
          "internalType": "struct Prj.frd[]",
          "name": "",
          "type": "tuple[]"
        }
      ],
      "stateMutability": "view",
      "type": "function"
    },
    {
      "inputs": [],
      "name": "getgrplist",
      "outputs": [
        {
          "components": [
            {
              "internalType": "bytes32",
              "name": "grpcode",
              "type": "bytes32"
            },
            {
              "internalType": "string",
              "name": "name",
              "type": "string"
            }
          ],
          "internalType": "struct Prj.grp[]",
          "name": "",
          "type": "tuple[]"
        }
      ],
      "stateMutability": "view",
      "type": "function"
    },
    {
      "inputs": [
        {
          "internalType": "address",
          "name": "pubkey",
          "type": "address"
        }
      ],
      "name": "getname",
      "outputs": [
        {
          "internalType": "string",
          "name": "",
          "type": "string"
        }
      ],
      "stateMutability": "view",
      "type": "function"
    },
    {
      "inputs": [],
      "name": "getuserlocs",
      "outputs": [
        {
          "components": [
            {
              "internalType": "string",
              "name": "name",
              "type": "string"
            },
            {
              "internalType": "address",
              "name": "accaddr",
              "type": "address"
            }
          ],
          "internalType": "struct Prj.userloc[]",
          "name": "",
          "type": "tuple[]"
        }
      ],
      "stateMutability": "view",
      "type": "function"
    },
    {
      "inputs": [
        {
          "internalType": "address",
          "name": "pubkey",
          "type": "address"
        }
      ],
      "name": "ifexist",
      "outputs": [
        {
          "internalType": "bool",
          "name": "",
          "type": "bool"
        }
      ],
      "stateMutability": "view",
      "type": "function"
    },
    {
      "inputs": [
        {
          "internalType": "string",
          "name": "name",
          "type": "string"
        }
      ],
      "name": "mkacc",
      "outputs": [],
      "stateMutability": "nonpayable",
      "type": "function"
    },
    {
      "inputs": [],
      "name": "myname",
      "outputs": [
        {
          "internalType": "string",
          "name": "",
          "type": "string"
        }
      ],
      "stateMutability": "view",
      "type": "function"
    },
    {
      "inputs": [
        {
          "internalType": "string",
          "name": "grpname",
          "type": "string"
        },
        {
          "internalType": "string",
          "name": "_msg",
          "type": "string"
        }
      ],
      "name": "post",
      "outputs": [],
      "stateMutability": "nonpayable",
      "type": "function"
    },
    {
      "inputs": [
        {
          "internalType": "address",
          "name": "frdkey",
          "type": "address"
        }
      ],
      "name": "rdmsg",
      "outputs": [
        {
          "components": [
            {
              "internalType": "address",
              "name": "sender",
              "type": "address"
            },
            {
              "internalType": "uint256",
              "name": "timestamp",
              "type": "uint256"
            },
            {
              "internalType": "string",
              "name": "txt",
              "type": "string"
            }
          ],
          "internalType": "struct Prj.msgb[]",
          "name": "",
          "type": "tuple[]"
        }
      ],
      "stateMutability": "view",
      "type": "function"
    },
    {
      "inputs": [
        {
          "internalType": "address",
          "name": "frdkey",
          "type": "address"
        },
        {
          "internalType": "string",
          "name": "_msg",
          "type": "string"
        }
      ],
      "name": "sendmsg",
      "outputs": [],
      "stateMutability": "nonpayable",
      "type": "function"
    }
  ],
  "bytecode": "0x608060405234801561001057600080fd5b50612fcd806100206000396000f3fe608060405234801561001057600080fd5b50600436106100f55760003560e01c8063a732654611610097578063d8625bca11610066578063d8625bca14610274578063e0abc02614610290578063e73ade8e146102ac578063f7dc435b146102dc576100f5565b8063a7326546146101ec578063b8cdbd221461021c578063bbed04781461023a578063cb3cfc1714610256576100f5565b80634742add1116100d35780634742add11461016457806360b125311461019457806361b3ad16146101b05780638ad277c9146101ce576100f5565b806301a8288a146100fa5780630ae1b13d1461011857806322318fc514610134575b600080fd5b6101026102fa565b60405161010f9190611f26565b60405180910390f35b610132600480360381019061012d9190611fb7565b610441565b005b61014e60048036038101906101499190612064565b610602565b60405161015b91906121bc565b60405180910390f35b61017e60048036038101906101799190612064565b610775565b60405161018b9190612228565b60405180910390f35b6101ae60048036038101906101a9919061224a565b610891565b005b6101b8610a88565b6040516101c591906122b2565b60405180910390f35b6101d6610ae0565b6040516101e391906123cc565b60405180910390f35b61020660048036038101906102019190612064565b610c67565b60405161021391906122b2565b60405180910390f35b610224610cc1565b6040516102319190612228565b60405180910390f35b610254600480360381019061024f91906123ee565b610d93565b005b61025e610fa0565b60405161026b9190612566565b60405180910390f35b61028e600480360381019061028991906123ee565b6110a1565b005b6102aa60048036038101906102a5919061224a565b611318565b005b6102c660048036038101906102c1919061224a565b6114fc565b6040516102d391906121bc565b60405180910390f35b6102e46116fc565b6040516102f19190612566565b60405180910390f35b60606000805480602002602001604051908101604052809291908181526020016000905b828210156104385783829060005260206000209060020201604051806040016040529081600082018054610351906125b7565b80601f016020809104026020016040519081016040528092919081815260200182805461037d906125b7565b80156103ca5780601f1061039f576101008083540402835291602001916103ca565b820191906000526020600020905b8154815290600101906020018083116103ad57829003601f168201915b505050505081526020016001820160009054906101000a900473ffffffffffffffffffffffffffffffffffffffff1673ffffffffffffffffffffffffffffffffffffffff1673ffffffffffffffffffffffffffffffffffffffff16815250508152602001906001019061031e565b50505050905090565b61044a33610c67565b610489576040517f08c379a000000000000000000000000000000000000000000000000000000000815260040161048090612634565b60405180910390fd5b610494338585611837565b6104d3576040517f08c379a00000000000000000000000000000000000000000000000000000000081526004016104ca906126a0565b60405180910390fd5b600060405180606001604052803373ffffffffffffffffffffffffffffffffffffffff16815260200142815260200184848080601f016020809104026020016040519081016040528093929190818152602001838380828437600081840152601f19601f8201169050808301925050505050505081525090506003600061055a878761192e565b815260200190815260200160002081908060018154018082558091505060019003906000526020600020906003020160009091909190915060008201518160000160006101000a81548173ffffffffffffffffffffffffffffffffffffffff021916908373ffffffffffffffffffffffffffffffffffffffff1602179055506020820151816001015560408201518160020190816105f8919061289b565b5050505050505050565b606060006106103384611980565b905060036000828152602001908152602001600020805480602002602001604051908101604052809291908181526020016000905b8282101561076957838290600052602060002090600302016040518060600160405290816000820160009054906101000a900473ffffffffffffffffffffffffffffffffffffffff1673ffffffffffffffffffffffffffffffffffffffff1673ffffffffffffffffffffffffffffffffffffffff168152602001600182015481526020016002820180546106d8906125b7565b80601f0160208091040260200160405190810160405280929190818152602001828054610704906125b7565b80156107515780601f1061072657610100808354040283529160200191610751565b820191906000526020600020905b81548152906001019060200180831161073457829003601f168201915b50505050508152505081526020019060010190610645565b50505050915050919050565b606061078033610c67565b6107bf576040517f08c379a00000000000000000000000000000000000000000000000000000000081526004016107b6906129b9565b60405180910390fd5b600260008373ffffffffffffffffffffffffffffffffffffffff1673ffffffffffffffffffffffffffffffffffffffff168152602001908152602001600020600001805461080c906125b7565b80601f0160208091040260200160405190810160405280929190818152602001828054610838906125b7565b80156108855780601f1061085a57610100808354040283529160200191610885565b820191906000526020600020905b81548152906001019060200180831161086857829003601f168201915b50505050509050919050565b61089a33610c67565b6108d9576040517f08c379a00000000000000000000000000000000000000000000000000000000081526004016108d090612634565b60405180910390fd5b600015156108e8338484611837565b15151461092a576040517f08c379a000000000000000000000000000000000000000000000000000000000815260040161092190612a25565b60405180910390fd5b60006040518060400160405280610941858561192e565b815260200184848080601f016020809104026020016040519081016040528093929190818152602001838380828437600081840152601f19601f820116905080830192505050505050508152509050600260003373ffffffffffffffffffffffffffffffffffffffff1673ffffffffffffffffffffffffffffffffffffffff168152602001908152602001600020600201819080600181540180825580915050600190039060005260206000209060020201600090919091909150600082015181600001556020820151816001019081610a1b919061289b565b50505060001515610a2d826001611a18565b151503610a83576001819080600181540180825580915050600190039060005260206000209060020201600090919091909150600082015181600001556020820151816001019081610a7f919061289b565b5050505b505050565b600080600260003373ffffffffffffffffffffffffffffffffffffffff1673ffffffffffffffffffffffffffffffffffffffff1681526020019081526020016000206000018054610ad8906125b7565b905011905090565b6060600260003373ffffffffffffffffffffffffffffffffffffffff1673ffffffffffffffffffffffffffffffffffffffff168152602001908152602001600020600101805480602002602001604051908101604052809291908181526020016000905b82821015610c5e57838290600052602060002090600202016040518060400160405290816000820160009054906101000a900473ffffffffffffffffffffffffffffffffffffffff1673ffffffffffffffffffffffffffffffffffffffff1673ffffffffffffffffffffffffffffffffffffffff168152602001600182018054610bcd906125b7565b80601f0160208091040260200160405190810160405280929190818152602001828054610bf9906125b7565b8015610c465780601f10610c1b57610100808354040283529160200191610c46565b820191906000526020600020905b815481529060010190602001808311610c2957829003601f168201915b50505050508152505081526020019060010190610b44565b50505050905090565b600080600260008473ffffffffffffffffffffffffffffffffffffffff1673ffffffffffffffffffffffffffffffffffffffff1681526020019081526020016000206000018054610cb7906125b7565b9050119050919050565b6060600260003373ffffffffffffffffffffffffffffffffffffffff1673ffffffffffffffffffffffffffffffffffffffff1681526020019081526020016000206000018054610d10906125b7565b80601f0160208091040260200160405190810160405280929190818152602001828054610d3c906125b7565b8015610d895780601f10610d5e57610100808354040283529160200191610d89565b820191906000526020600020905b815481529060010190602001808311610d6c57829003601f168201915b5050505050905090565b610d9c33610c67565b610ddb576040517f08c379a0000000000000000000000000000000000000000000000000000000008152600401610dd290612634565b60405180910390fd5b610de483610c67565b610e23576040517f08c379a0000000000000000000000000000000000000000000000000000000008152600401610e1a90612a91565b60405180910390fd5b610e2d3384611a84565b610e6c576040517f08c379a0000000000000000000000000000000000000000000000000000000008152600401610e6390612afd565b60405180910390fd5b6000610e783385611980565b9050600060405180606001604052803373ffffffffffffffffffffffffffffffffffffffff16815260200142815260200185858080601f016020809104026020016040519081016040528093929190818152602001838380828437600081840152601f19601f8201169050808301925050505050505081525090506003600083815260200190815260200160002081908060018154018082558091505060019003906000526020600020906003020160009091909190915060008201518160000160006101000a81548173ffffffffffffffffffffffffffffffffffffffff021916908373ffffffffffffffffffffffffffffffffffffffff160217905550602082015181600101556040820151816002019081610f96919061289b565b5050505050505050565b606060006001805480602002602001604051908101604052809291908181526020016000905b82821015611094578382906000526020600020906002020160405180604001604052908160008201548152602001600182018054611003906125b7565b80601f016020809104026020016040519081016040528092919081815260200182805461102f906125b7565b801561107c5780601f106110515761010080835404028352916020019161107c565b820191906000526020600020905b81548152906001019060200180831161105f57829003601f168201915b50505050508152505081526020019060010190610fc6565b5050505090508091505090565b6110aa33610c67565b6110e9576040517f08c379a00000000000000000000000000000000000000000000000000000000081526004016110e090612634565b60405180910390fd5b6110f283610c67565b611131576040517f08c379a0000000000000000000000000000000000000000000000000000000008152600401611128906129b9565b60405180910390fd5b8273ffffffffffffffffffffffffffffffffffffffff163373ffffffffffffffffffffffffffffffffffffffff160361119f576040517f08c379a000000000000000000000000000000000000000000000000000000000815260040161119690612b69565b60405180910390fd5b600015156111ad3385611a84565b1515146111ef576040517f08c379a00000000000000000000000000000000000000000000000000000000081526004016111e690612bd5565b60405180910390fd5b61123e338484848080601f016020809104026020016040519081016040528093929190818152602001838380828437600081840152601f19601f82011690508083019250505050505050611c56565b6113138333600260003373ffffffffffffffffffffffffffffffffffffffff1673ffffffffffffffffffffffffffffffffffffffff1681526020019081526020016000206000018054611290906125b7565b80601f01602080910402602001604051908101604052809291908181526020018280546112bc906125b7565b80156113095780601f106112de57610100808354040283529160200191611309565b820191906000526020600020905b8154815290600101906020018083116112ec57829003601f168201915b5050505050611c56565b505050565b6000151561132533610c67565b151514611367576040517f08c379a000000000000000000000000000000000000000000000000000000000815260040161135e90612c41565b60405180910390fd5b600082829050116113ad576040517f08c379a00000000000000000000000000000000000000000000000000000000081526004016113a490612cad565b60405180910390fd5b8181600260003373ffffffffffffffffffffffffffffffffffffffff1673ffffffffffffffffffffffffffffffffffffffff16815260200190815260200160002060000191826113fe929190612cd8565b506000604051806040016040528084848080601f016020809104026020016040519081016040528093929190818152602001838380828437600081840152601f19601f8201169050808301925050505050505081526020013373ffffffffffffffffffffffffffffffffffffffff16815250908060018154018082558091505060019003906000526020600020906002020160009091909190915060008201518160000190816114ae919061289b565b5060208201518160010160006101000a81548173ffffffffffffffffffffffffffffffffffffffff021916908373ffffffffffffffffffffffffffffffffffffffff16021790555050505050565b606061150733610c67565b611546576040517f08c379a000000000000000000000000000000000000000000000000000000000815260040161153d90612634565b60405180910390fd5b611551338484611837565b611590576040517f08c379a0000000000000000000000000000000000000000000000000000000008152600401611587906126a0565b60405180910390fd5b6003600061159e858561192e565b8152602001908152602001600020805480602002602001604051908101604052809291908181526020016000905b828210156116f057838290600052602060002090600302016040518060600160405290816000820160009054906101000a900473ffffffffffffffffffffffffffffffffffffffff1673ffffffffffffffffffffffffffffffffffffffff1673ffffffffffffffffffffffffffffffffffffffff1681526020016001820154815260200160028201805461165f906125b7565b80601f016020809104026020016040519081016040528092919081815260200182805461168b906125b7565b80156116d85780601f106116ad576101008083540402835291602001916116d8565b820191906000526020600020905b8154815290600101906020018083116116bb57829003601f168201915b505050505081525050815260200190600101906115cc565b50505050905092915050565b6060600260003373ffffffffffffffffffffffffffffffffffffffff1673ffffffffffffffffffffffffffffffffffffffff168152602001908152602001600020600201805480602002602001604051908101604052809291908181526020016000905b8282101561182e57838290600052602060002090600202016040518060400160405290816000820154815260200160018201805461179d906125b7565b80601f01602080910402602001604051908101604052809291908181526020018280546117c9906125b7565b80156118165780601f106117eb57610100808354040283529160200191611816565b820191906000526020600020905b8154815290600101906020018083116117f957829003601f168201915b50505050508152505081526020019060010190611760565b50505050905090565b600080611844848461192e565b905060005b600260008773ffffffffffffffffffffffffffffffffffffffff1673ffffffffffffffffffffffffffffffffffffffff168152602001908152602001600020600201805490508110156119205781600260008873ffffffffffffffffffffffffffffffffffffffff1673ffffffffffffffffffffffffffffffffffffffff16815260200190815260200160002060020182815481106118eb576118ea612da8565b5b9060005260206000209060020201600001540361190d57600192505050611927565b808061191890612e06565b915050611849565b5060009150505b9392505050565b60008282604051602001611943929190612eb3565b6040516020818303038152906040526040516020016119629190612f0c565b60405160208183030381529060405280519060200120905092915050565b60008173ffffffffffffffffffffffffffffffffffffffff168373ffffffffffffffffffffffffffffffffffffffff1610156119e65782826040516020016119c9929190612f6b565b604051602081830303815290604052805190602001209050611a12565b81836040516020016119f9929190612f6b565b6040516020818303038152906040528051906020012090505b92915050565b600080600090505b8280549050811015611a7857828181548110611a3f57611a3e612da8565b5b906000526020600020906002020160000154846000015103611a65576001915050611a7e565b8080611a7090612e06565b915050611a20565b50600090505b92915050565b6000600260008373ffffffffffffffffffffffffffffffffffffffff1673ffffffffffffffffffffffffffffffffffffffff16815260200190815260200160002060010180549050600260008573ffffffffffffffffffffffffffffffffffffffff1673ffffffffffffffffffffffffffffffffffffffff168152602001908152602001600020600101805490501115611b25576000839050829350809250505b60005b600260008573ffffffffffffffffffffffffffffffffffffffff1673ffffffffffffffffffffffffffffffffffffffff16815260200190815260200160002060010180549050811015611c4a578273ffffffffffffffffffffffffffffffffffffffff16600260008673ffffffffffffffffffffffffffffffffffffffff1673ffffffffffffffffffffffffffffffffffffffff1681526020019081526020016000206001018281548110611be057611bdf612da8565b5b906000526020600020906002020160000160009054906101000a900473ffffffffffffffffffffffffffffffffffffffff1673ffffffffffffffffffffffffffffffffffffffff1603611c37576001915050611c50565b8080611c4290612e06565b915050611b28565b50600090505b92915050565b600060405180604001604052808473ffffffffffffffffffffffffffffffffffffffff168152602001838152509050600260008573ffffffffffffffffffffffffffffffffffffffff1673ffffffffffffffffffffffffffffffffffffffff16815260200190815260200160002060010181908060018154018082558091505060019003906000526020600020906002020160009091909190915060008201518160000160006101000a81548173ffffffffffffffffffffffffffffffffffffffff021916908373ffffffffffffffffffffffffffffffffffffffff1602179055506020820151816001019081611d4d919061289b565b50505050505050565b600081519050919050565b600082825260208201905092915050565b6000819050602082019050919050565b600081519050919050565b600082825260208201905092915050565b60005b83811015611dbc578082015181840152602081019050611da1565b60008484015250505050565b6000601f19601f8301169050919050565b6000611de482611d82565b611dee8185611d8d565b9350611dfe818560208601611d9e565b611e0781611dc8565b840191505092915050565b600073ffffffffffffffffffffffffffffffffffffffff82169050919050565b6000611e3d82611e12565b9050919050565b611e4d81611e32565b82525050565b60006040830160008301518482036000860152611e708282611dd9565b9150506020830151611e856020860182611e44565b508091505092915050565b6000611e9c8383611e53565b905092915050565b6000602082019050919050565b6000611ebc82611d56565b611ec68185611d61565b935083602082028501611ed885611d72565b8060005b85811015611f145784840389528151611ef58582611e90565b9450611f0083611ea4565b925060208a01995050600181019050611edc565b50829750879550505050505092915050565b60006020820190508181036000830152611f408184611eb1565b905092915050565b600080fd5b600080fd5b600080fd5b600080fd5b600080fd5b60008083601f840112611f7757611f76611f52565b5b8235905067ffffffffffffffff811115611f9457611f93611f57565b5b602083019150836001820283011115611fb057611faf611f5c565b5b9250929050565b60008060008060408587031215611fd157611fd0611f48565b5b600085013567ffffffffffffffff811115611fef57611fee611f4d565b5b611ffb87828801611f61565b9450945050602085013567ffffffffffffffff81111561201e5761201d611f4d565b5b61202a87828801611f61565b925092505092959194509250565b61204181611e32565b811461204c57600080fd5b50565b60008135905061205e81612038565b92915050565b60006020828403121561207a57612079611f48565b5b60006120888482850161204f565b91505092915050565b600081519050919050565b600082825260208201905092915050565b6000819050602082019050919050565b6000819050919050565b6120d0816120bd565b82525050565b60006060830160008301516120ee6000860182611e44565b50602083015161210160208601826120c7565b50604083015184820360408601526121198282611dd9565b9150508091505092915050565b600061213283836120d6565b905092915050565b6000602082019050919050565b600061215282612091565b61215c818561209c565b93508360208202850161216e856120ad565b8060005b858110156121aa578484038952815161218b8582612126565b94506121968361213a565b925060208a01995050600181019050612172565b50829750879550505050505092915050565b600060208201905081810360008301526121d68184612147565b905092915050565b600082825260208201905092915050565b60006121fa82611d82565b61220481856121de565b9350612214818560208601611d9e565b61221d81611dc8565b840191505092915050565b6000602082019050818103600083015261224281846121ef565b905092915050565b6000806020838503121561226157612260611f48565b5b600083013567ffffffffffffffff81111561227f5761227e611f4d565b5b61228b85828601611f61565b92509250509250929050565b60008115159050919050565b6122ac81612297565b82525050565b60006020820190506122c760008301846122a3565b92915050565b600081519050919050565b600082825260208201905092915050565b6000819050602082019050919050565b60006040830160008301516123116000860182611e44565b50602083015184820360208601526123298282611dd9565b9150508091505092915050565b600061234283836122f9565b905092915050565b6000602082019050919050565b6000612362826122cd565b61236c81856122d8565b93508360208202850161237e856122e9565b8060005b858110156123ba578484038952815161239b8582612336565b94506123a68361234a565b925060208a01995050600181019050612382565b50829750879550505050505092915050565b600060208201905081810360008301526123e68184612357565b905092915050565b60008060006040848603121561240757612406611f48565b5b60006124158682870161204f565b935050602084013567ffffffffffffffff81111561243657612435611f4d565b5b61244286828701611f61565b92509250509250925092565b600081519050919050565b600082825260208201905092915050565b6000819050602082019050919050565b6000819050919050565b61248d8161247a565b82525050565b60006040830160008301516124ab6000860182612484565b50602083015184820360208601526124c38282611dd9565b9150508091505092915050565b60006124dc8383612493565b905092915050565b6000602082019050919050565b60006124fc8261244e565b6125068185612459565b9350836020820285016125188561246a565b8060005b85811015612554578484038952815161253585826124d0565b9450612540836124e4565b925060208a0199505060018101905061251c565b50829750879550505050505092915050565b6000602082019050818103600083015261258081846124f1565b905092915050565b7f4e487b7100000000000000000000000000000000000000000000000000000000600052602260045260246000fd5b600060028204905060018216806125cf57607f821691505b6020821081036125e2576125e1612588565b5b50919050565b7f416e206163636f756e7420697320726571756972656421000000000000000000600082015250565b600061261e6017836121de565b9150612629826125e8565b602082019050919050565b6000602082019050818103600083015261264d81612611565b9050919050565b7f4e6f7420696e2067726f75702100000000000000000000000000000000000000600082015250565b600061268a600d836121de565b915061269582612654565b602082019050919050565b600060208201905081810360008301526126b98161267d565b9050919050565b7f4e487b7100000000000000000000000000000000000000000000000000000000600052604160045260246000fd5b60008190508160005260206000209050919050565b60006020601f8301049050919050565b600082821b905092915050565b6000600883026127517fffffffffffffffffffffffffffffffffffffffffffffffffffffffffffffffff82612714565b61275b8683612714565b95508019841693508086168417925050509392505050565b6000819050919050565b600061279861279361278e846120bd565b612773565b6120bd565b9050919050565b6000819050919050565b6127b28361277d565b6127c66127be8261279f565b848454612721565b825550505050565b600090565b6127db6127ce565b6127e68184846127a9565b505050565b5b8181101561280a576127ff6000826127d3565b6001810190506127ec565b5050565b601f82111561284f57612820816126ef565b61282984612704565b81016020851015612838578190505b61284c61284485612704565b8301826127eb565b50505b505050565b600082821c905092915050565b600061287260001984600802612854565b1980831691505092915050565b600061288b8383612861565b9150826002028217905092915050565b6128a482611d82565b67ffffffffffffffff8111156128bd576128bc6126c0565b5b6128c782546125b7565b6128d282828561280e565b600060209050601f83116001811461290557600084156128f3578287015190505b6128fd858261287f565b865550612965565b601f198416612913866126ef565b60005b8281101561293b57848901518255600182019150602085019450602081019050612916565b868310156129585784890151612954601f891682612861565b8355505b6001600288020188555050505b505050505050565b7f5573657220646f6573206e6f7420657869737421000000000000000000000000600082015250565b60006129a36014836121de565b91506129ae8261296d565b602082019050919050565b600060208201905081810360008301526129d281612996565b9050919050565b7f416c726561647920696e2067726f757021000000000000000000000000000000600082015250565b6000612a0f6011836121de565b9150612a1a826129d9565b602082019050919050565b60006020820190508181036000830152612a3e81612a02565b9050919050565b7f4163636f756e7420646f6573206e6f7420657869737421000000000000000000600082015250565b6000612a7b6017836121de565b9150612a8682612a45565b602082019050919050565b60006020820190508181036000830152612aaa81612a6e565b9050919050565b7f596f7520617265206e6f7420667269656e64732e2e2e00000000000000000000600082015250565b6000612ae76016836121de565b9150612af282612ab1565b602082019050919050565b60006020820190508181036000830152612b1681612ada565b9050919050565b7f446f6e27742061646420796f757273656c662100000000000000000000000000600082015250565b6000612b536013836121de565b9150612b5e82612b1d565b602082019050919050565b60006020820190508181036000830152612b8281612b46565b9050919050565b7f416c726561647920667269656e64732100000000000000000000000000000000600082015250565b6000612bbf6010836121de565b9150612bca82612b89565b602082019050919050565b60006020820190508181036000830152612bee81612bb2565b9050919050565b7f5573657220657869737473210000000000000000000000000000000000000000600082015250565b6000612c2b600c836121de565b9150612c3682612bf5565b602082019050919050565b60006020820190508181036000830152612c5a81612c1e565b9050919050565b7f496e707574206e6f6e20656d707479206e69636b6e616d652100000000000000600082015250565b6000612c976019836121de565b9150612ca282612c61565b602082019050919050565b60006020820190508181036000830152612cc681612c8a565b9050919050565b600082905092915050565b612ce28383612ccd565b67ffffffffffffffff811115612cfb57612cfa6126c0565b5b612d0582546125b7565b612d1082828561280e565b6000601f831160018114612d3f5760008415612d2d578287013590505b612d37858261287f565b865550612d9f565b601f198416612d4d866126ef565b60005b82811015612d7557848901358255600182019150602085019450602081019050612d50565b86831015612d925784890135612d8e601f891682612861565b8355505b6001600288020188555050505b50505050505050565b7f4e487b7100000000000000000000000000000000000000000000000000000000600052603260045260246000fd5b7f4e487b7100000000000000000000000000000000000000000000000000000000600052601160045260246000fd5b6000612e11826120bd565b91507fffffffffffffffffffffffffffffffffffffffffffffffffffffffffffffffff8203612e4357612e42612dd7565b5b600182019050919050565b7f6772703a00000000000000000000000000000000000000000000000000000000815250565b600081905092915050565b82818337600083830152505050565b6000612e9a8385612e74565b9350612ea7838584612e7f565b82840190509392505050565b6000612ebe82612e4e565b600482019150612ecf828486612e8e565b91508190509392505050565b6000612ee682611d82565b612ef08185612e74565b9350612f00818560208601611d9e565b80840191505092915050565b6000612f188284612edb565b915081905092915050565b60008160601b9050919050565b6000612f3b82612f23565b9050919050565b6000612f4d82612f30565b9050919050565b612f65612f6082611e32565b612f42565b82525050565b6000612f778285612f54565b601482019150612f878284612f54565b601482019150819050939250505056fea26469706673582212208358a2234ffc9adc402b7b676cfd9665d99c8a2ea6e70f3c7824027f46c136a964736f6c63430008130033",
  "linkReferences": {},
  "deployedLinkReferences": {}
}