{
  "_format": "hh-sol-artifact-1",
  "contractName": "Prj",
  "sourceName": "contracts/Prj.sol",
  "abi": [
    {
      "inputs": [
        {
          "internalType": "address",
          "name": "frdkey",
          "type": "address"
        },
        {
          "internalType": "string",
          "name": "name",
          "type": "string"
        }
      ],
      "name": "addfrd",
      "outputs": [],
      "stateMutability": "nonpayable",
      "type": "function"
    },
    {
      "inputs": [
        {
          "internalType": "string",
          "name": "grpname",
          "type": "string"
        }
      ],
      "name": "addgrp",
      "outputs": [],
      "stateMutability": "nonpayable",
      "type": "function"
    },
    {
      "inputs": [
        {
          "internalType": "string",
          "name": "grpname",
          "type": "string"
        }
      ],
      "name": "feed",
      "outputs": [
        {
          "components": [
            {
              "internalType": "address",
              "name": "sender",
              "type": "address"
            },
            {
              "internalType": "uint256",
              "name": "timestamp",
              "type": "uint256"
            },
            {
              "internalType": "string",
              "name": "txt",
              "type": "string"
            }
          ],
          "internalType": "struct Prj.msgb[]",
          "name": "",
          "type": "tuple[]"
        }
      ],
      "stateMutability": "view",
      "type": "function"
    },
    {
      "inputs": [],
      "name": "getallgrp",
      "outputs": [
        {
          "components": [
            {
              "internalType": "bytes32",
              "name": "grpcode",
              "type": "bytes32"
            },
            {
              "internalType": "string",
              "name": "name",
              "type": "string"
            }
          ],
          "internalType": "struct Prj.grp[]",
          "name": "",
          "type": "tuple[]"
        }
      ],
      "stateMutability": "view",
      "type": "function"
    },
    {
      "inputs": [],
      "name": "getfrdlist",
      "outputs": [
        {
          "components": [
            {
              "internalType": "address",
              "name": "pubkey",
              "type": "address"
            },
            {
              "internalType": "string",
              "name": "name",
              "type": "string"
            }
          ],
          "internalType": "struct Prj.frd[]",
          "name": "",
          "type": "tuple[]"
        }
      ],
      "stateMutability": "view",
      "type": "function"
    },
    {
      "inputs": [],
      "name": "getgrplist",
      "outputs": [
        {
          "components": [
            {
              "internalType": "bytes32",
              "name": "grpcode",
              "type": "bytes32"
            },
            {
              "internalType": "string",
              "name": "name",
              "type": "string"
            }
          ],
          "internalType": "struct Prj.grp[]",
          "name": "",
          "type": "tuple[]"
        }
      ],
      "stateMutability": "view",
      "type": "function"
    },
    {
      "inputs": [
        {
          "internalType": "address",
          "name": "pubkey",
          "type": "address"
        }
      ],
      "name": "getname",
      "outputs": [
        {
          "internalType": "string",
          "name": "",
          "type": "string"
        }
      ],
      "stateMutability": "view",
      "type": "function"
    },
    {
      "inputs": [],
      "name": "getuserlocs",
      "outputs": [
        {
          "components": [
            {
              "internalType": "string",
              "name": "name",
              "type": "string"
            },
            {
              "internalType": "address",
              "name": "accaddr",
              "type": "address"
            }
          ],
          "internalType": "struct Prj.userloc[]",
          "name": "",
          "type": "tuple[]"
        }
      ],
      "stateMutability": "view",
      "type": "function"
    },
    {
      "inputs": [
        {
          "internalType": "address",
          "name": "pubkey",
          "type": "address"
        }
      ],
      "name": "ifexist",
      "outputs": [
        {
          "internalType": "bool",
          "name": "",
          "type": "bool"
        }
      ],
      "stateMutability": "view",
      "type": "function"
    },
    {
      "inputs": [
        {
          "internalType": "string",
          "name": "name",
          "type": "string"
        }
      ],
      "name": "mkacc",
      "outputs": [],
      "stateMutability": "nonpayable",
      "type": "function"
    },
    {
      "inputs": [
        {
          "internalType": "string",
          "name": "grpname",
          "type": "string"
        },
        {
          "internalType": "string",
          "name": "_msg",
          "type": "string"
        }
      ],
      "name": "post",
      "outputs": [],
      "stateMutability": "nonpayable",
      "type": "function"
    },
    {
      "inputs": [
        {
          "internalType": "address",
          "name": "frdkey",
          "type": "address"
        }
      ],
      "name": "rdmsg",
      "outputs": [
        {
          "components": [
            {
              "internalType": "address",
              "name": "sender",
              "type": "address"
            },
            {
              "internalType": "uint256",
              "name": "timestamp",
              "type": "uint256"
            },
            {
              "internalType": "string",
              "name": "txt",
              "type": "string"
            }
          ],
          "internalType": "struct Prj.msgb[]",
          "name": "",
          "type": "tuple[]"
        }
      ],
      "stateMutability": "view",
      "type": "function"
    },
    {
      "inputs": [
        {
          "internalType": "address",
          "name": "frdkey",
          "type": "address"
        },
        {
          "internalType": "string",
          "name": "_msg",
          "type": "string"
        }
      ],
      "name": "sendmsg",
      "outputs": [],
      "stateMutability": "nonpayable",
      "type": "function"
    }
  ],
  "bytecode": "0x608060405234801561001057600080fd5b50612e51806100206000396000f3fe608060405234801561001057600080fd5b50600436106100cf5760003560e01c8063a73265461161008c578063d8625bca11610066578063d8625bca14610212578063e0abc0261461022e578063e73ade8e1461024a578063f7dc435b1461027a576100cf565b8063a7326546146101a8578063bbed0478146101d8578063cb3cfc17146101f4576100cf565b806301a8288a146100d45780630ae1b13d146100f257806322318fc51461010e5780634742add11461013e57806360b125311461016e5780638ad277c91461018a575b600080fd5b6100dc610298565b6040516100e99190611daa565b60405180910390f35b61010c60048036038101906101079190611e3b565b6103df565b005b61012860048036038101906101239190611ee8565b6105a0565b6040516101359190612040565b60405180910390f35b61015860048036038101906101539190611ee8565b610713565b60405161016591906120ac565b60405180910390f35b610188600480360381019061018391906120ce565b61082f565b005b6101926108d7565b60405161019f919061221a565b60405180910390f35b6101c260048036038101906101bd9190611ee8565b610a5e565b6040516101cf9190612257565b60405180910390f35b6101f260048036038101906101ed9190612272565b610ab8565b005b6101fc610cc5565b60405161020991906123ea565b60405180910390f35b61022c60048036038101906102279190612272565b610dc6565b005b610248600480360381019061024391906120ce565b61103d565b005b610264600480360381019061025f91906120ce565b611221565b6040516102719190612040565b60405180910390f35b610282611421565b60405161028f91906123ea565b60405180910390f35b60606000805480602002602001604051908101604052809291908181526020016000905b828210156103d657838290600052602060002090600202016040518060400160405290816000820180546102ef9061243b565b80601f016020809104026020016040519081016040528092919081815260200182805461031b9061243b565b80156103685780601f1061033d57610100808354040283529160200191610368565b820191906000526020600020905b81548152906001019060200180831161034b57829003601f168201915b505050505081526020016001820160009054906101000a900473ffffffffffffffffffffffffffffffffffffffff1673ffffffffffffffffffffffffffffffffffffffff1673ffffffffffffffffffffffffffffffffffffffff1681525050815260200190600101906102bc565b50505050905090565b6103e833610a5e565b610427576040517f08c379a000000000000000000000000000000000000000000000000000000000815260040161041e906124b8565b60405180910390fd5b61043233858561155c565b610471576040517f08c379a000000000000000000000000000000000000000000000000000000000815260040161046890612524565b60405180910390fd5b600060405180606001604052803373ffffffffffffffffffffffffffffffffffffffff16815260200142815260200184848080601f016020809104026020016040519081016040528093929190818152602001838380828437600081840152601f19601f820116905080830192505050505050508152509050600360006104f88787611653565b815260200190815260200160002081908060018154018082558091505060019003906000526020600020906003020160009091909190915060008201518160000160006101000a81548173ffffffffffffffffffffffffffffffffffffffff021916908373ffffffffffffffffffffffffffffffffffffffff160217905550602082015181600101556040820151816002019081610596919061271f565b5050505050505050565b606060006105ae33846116a5565b905060036000828152602001908152602001600020805480602002602001604051908101604052809291908181526020016000905b8282101561070757838290600052602060002090600302016040518060600160405290816000820160009054906101000a900473ffffffffffffffffffffffffffffffffffffffff1673ffffffffffffffffffffffffffffffffffffffff1673ffffffffffffffffffffffffffffffffffffffff168152602001600182015481526020016002820180546106769061243b565b80601f01602080910402602001604051908101604052809291908181526020018280546106a29061243b565b80156106ef5780601f106106c4576101008083540402835291602001916106ef565b820191906000526020600020905b8154815290600101906020018083116106d257829003601f168201915b505050505081525050815260200190600101906105e3565b50505050915050919050565b606061071e33610a5e565b61075d576040517f08c379a00000000000000000000000000000000000000000000000000000000081526004016107549061283d565b60405180910390fd5b600260008373ffffffffffffffffffffffffffffffffffffffff1673ffffffffffffffffffffffffffffffffffffffff16815260200190815260200160002060000180546107aa9061243b565b80601f01602080910402602001604051908101604052809291908181526020018280546107d69061243b565b80156108235780601f106107f857610100808354040283529160200191610823565b820191906000526020600020905b81548152906001019060200180831161080657829003601f168201915b50505050509050919050565b61083833610a5e565b610877576040517f08c379a000000000000000000000000000000000000000000000000000000000815260040161086e906124b8565b60405180910390fd5b6000151561088633848461155c565b1515146108c8576040517f08c379a00000000000000000000000000000000000000000000000000000000081526004016108bf906128a9565b60405180910390fd5b6108d333838361173d565b5050565b6060600260003373ffffffffffffffffffffffffffffffffffffffff1673ffffffffffffffffffffffffffffffffffffffff168152602001908152602001600020600101805480602002602001604051908101604052809291908181526020016000905b82821015610a5557838290600052602060002090600202016040518060400160405290816000820160009054906101000a900473ffffffffffffffffffffffffffffffffffffffff1673ffffffffffffffffffffffffffffffffffffffff1673ffffffffffffffffffffffffffffffffffffffff1681526020016001820180546109c49061243b565b80601f01602080910402602001604051908101604052809291908181526020018280546109f09061243b565b8015610a3d5780601f10610a1257610100808354040283529160200191610a3d565b820191906000526020600020905b815481529060010190602001808311610a2057829003601f168201915b5050505050815250508152602001906001019061093b565b50505050905090565b600080600260008473ffffffffffffffffffffffffffffffffffffffff1673ffffffffffffffffffffffffffffffffffffffff1681526020019081526020016000206000018054610aae9061243b565b9050119050919050565b610ac133610a5e565b610b00576040517f08c379a0000000000000000000000000000000000000000000000000000000008152600401610af7906124b8565b60405180910390fd5b610b0983610a5e565b610b48576040517f08c379a0000000000000000000000000000000000000000000000000000000008152600401610b3f90612915565b60405180910390fd5b610b52338461189c565b610b91576040517f08c379a0000000000000000000000000000000000000000000000000000000008152600401610b8890612981565b60405180910390fd5b6000610b9d33856116a5565b9050600060405180606001604052803373ffffffffffffffffffffffffffffffffffffffff16815260200142815260200185858080601f016020809104026020016040519081016040528093929190818152602001838380828437600081840152601f19601f8201169050808301925050505050505081525090506003600083815260200190815260200160002081908060018154018082558091505060019003906000526020600020906003020160009091909190915060008201518160000160006101000a81548173ffffffffffffffffffffffffffffffffffffffff021916908373ffffffffffffffffffffffffffffffffffffffff160217905550602082015181600101556040820151816002019081610cbb919061271f565b5050505050505050565b606060006001805480602002602001604051908101604052809291908181526020016000905b82821015610db9578382906000526020600020906002020160405180604001604052908160008201548152602001600182018054610d289061243b565b80601f0160208091040260200160405190810160405280929190818152602001828054610d549061243b565b8015610da15780601f10610d7657610100808354040283529160200191610da1565b820191906000526020600020905b815481529060010190602001808311610d8457829003601f168201915b50505050508152505081526020019060010190610ceb565b5050505090508091505090565b610dcf33610a5e565b610e0e576040517f08c379a0000000000000000000000000000000000000000000000000000000008152600401610e05906124b8565b60405180910390fd5b610e1783610a5e565b610e56576040517f08c379a0000000000000000000000000000000000000000000000000000000008152600401610e4d9061283d565b60405180910390fd5b8273ffffffffffffffffffffffffffffffffffffffff163373ffffffffffffffffffffffffffffffffffffffff1603610ec4576040517f08c379a0000000000000000000000000000000000000000000000000000000008152600401610ebb906129ed565b60405180910390fd5b60001515610ed2338561189c565b151514610f14576040517f08c379a0000000000000000000000000000000000000000000000000000000008152600401610f0b90612a59565b60405180910390fd5b610f63338484848080601f016020809104026020016040519081016040528093929190818152602001838380828437600081840152601f19601f82011690508083019250505050505050611a6e565b6110388333600260003373ffffffffffffffffffffffffffffffffffffffff1673ffffffffffffffffffffffffffffffffffffffff1681526020019081526020016000206000018054610fb59061243b565b80601f0160208091040260200160405190810160405280929190818152602001828054610fe19061243b565b801561102e5780601f106110035761010080835404028352916020019161102e565b820191906000526020600020905b81548152906001019060200180831161101157829003601f168201915b5050505050611a6e565b505050565b6000151561104a33610a5e565b15151461108c576040517f08c379a000000000000000000000000000000000000000000000000000000000815260040161108390612ac5565b60405180910390fd5b600082829050116110d2576040517f08c379a00000000000000000000000000000000000000000000000000000000081526004016110c990612b31565b60405180910390fd5b8181600260003373ffffffffffffffffffffffffffffffffffffffff1673ffffffffffffffffffffffffffffffffffffffff1681526020019081526020016000206000019182611123929190612b5c565b506000604051806040016040528084848080601f016020809104026020016040519081016040528093929190818152602001838380828437600081840152601f19601f8201169050808301925050505050505081526020013373ffffffffffffffffffffffffffffffffffffffff16815250908060018154018082558091505060019003906000526020600020906002020160009091909190915060008201518160000190816111d3919061271f565b5060208201518160010160006101000a81548173ffffffffffffffffffffffffffffffffffffffff021916908373ffffffffffffffffffffffffffffffffffffffff16021790555050505050565b606061122c33610a5e565b61126b576040517f08c379a0000000000000000000000000000000000000000000000000000000008152600401611262906124b8565b60405180910390fd5b61127633848461155c565b6112b5576040517f08c379a00000000000000000000000000000000000000000000000000000000081526004016112ac90612524565b60405180910390fd5b600360006112c38585611653565b8152602001908152602001600020805480602002602001604051908101604052809291908181526020016000905b8282101561141557838290600052602060002090600302016040518060600160405290816000820160009054906101000a900473ffffffffffffffffffffffffffffffffffffffff1673ffffffffffffffffffffffffffffffffffffffff1673ffffffffffffffffffffffffffffffffffffffff168152602001600182015481526020016002820180546113849061243b565b80601f01602080910402602001604051908101604052809291908181526020018280546113b09061243b565b80156113fd5780601f106113d2576101008083540402835291602001916113fd565b820191906000526020600020905b8154815290600101906020018083116113e057829003601f168201915b505050505081525050815260200190600101906112f1565b50505050905092915050565b6060600260003373ffffffffffffffffffffffffffffffffffffffff1673ffffffffffffffffffffffffffffffffffffffff168152602001908152602001600020600201805480602002602001604051908101604052809291908181526020016000905b828210156115535783829060005260206000209060020201604051806040016040529081600082015481526020016001820180546114c29061243b565b80601f01602080910402602001604051908101604052809291908181526020018280546114ee9061243b565b801561153b5780601f106115105761010080835404028352916020019161153b565b820191906000526020600020905b81548152906001019060200180831161151e57829003601f168201915b50505050508152505081526020019060010190611485565b50505050905090565b6000806115698484611653565b905060005b600260008773ffffffffffffffffffffffffffffffffffffffff1673ffffffffffffffffffffffffffffffffffffffff168152602001908152602001600020600201805490508110156116455781600260008873ffffffffffffffffffffffffffffffffffffffff1673ffffffffffffffffffffffffffffffffffffffff16815260200190815260200160002060020182815481106116105761160f612c2c565b5b906000526020600020906002020160000154036116325760019250505061164c565b808061163d90612c8a565b91505061156e565b5060009150505b9392505050565b60008282604051602001611668929190612d37565b6040516020818303038152906040526040516020016116879190612d90565b60405160208183030381529060405280519060200120905092915050565b60008173ffffffffffffffffffffffffffffffffffffffff168373ffffffffffffffffffffffffffffffffffffffff16101561170b5782826040516020016116ee929190612def565b604051602081830303815290604052805190602001209050611737565b818360405160200161171e929190612def565b6040516020818303038152906040528051906020012090505b92915050565b600060405180604001604052806117548585611653565b815260200184848080601f016020809104026020016040519081016040528093929190818152602001838380828437600081840152601f19601f820116905080830192505050505050508152509050600260008573ffffffffffffffffffffffffffffffffffffffff1673ffffffffffffffffffffffffffffffffffffffff16815260200190815260200160002060020181908060018154018082558091505060019003906000526020600020906002020160009091909190915060008201518160000155602082015181600101908161182e919061271f565b50505060001515611840826001611b6e565b151503611896576001819080600181540180825580915050600190039060005260206000209060020201600090919091909150600082015181600001556020820151816001019081611892919061271f565b5050505b50505050565b6000600260008373ffffffffffffffffffffffffffffffffffffffff1673ffffffffffffffffffffffffffffffffffffffff16815260200190815260200160002060010180549050600260008573ffffffffffffffffffffffffffffffffffffffff1673ffffffffffffffffffffffffffffffffffffffff16815260200190815260200160002060010180549050111561193d576000839050829350809250505b60005b600260008573ffffffffffffffffffffffffffffffffffffffff1673ffffffffffffffffffffffffffffffffffffffff16815260200190815260200160002060010180549050811015611a62578273ffffffffffffffffffffffffffffffffffffffff16600260008673ffffffffffffffffffffffffffffffffffffffff1673ffffffffffffffffffffffffffffffffffffffff16815260200190815260200160002060010182815481106119f8576119f7612c2c565b5b906000526020600020906002020160000160009054906101000a900473ffffffffffffffffffffffffffffffffffffffff1673ffffffffffffffffffffffffffffffffffffffff1603611a4f576001915050611a68565b8080611a5a90612c8a565b915050611940565b50600090505b92915050565b600060405180604001604052808473ffffffffffffffffffffffffffffffffffffffff168152602001838152509050600260008573ffffffffffffffffffffffffffffffffffffffff1673ffffffffffffffffffffffffffffffffffffffff16815260200190815260200160002060010181908060018154018082558091505060019003906000526020600020906002020160009091909190915060008201518160000160006101000a81548173ffffffffffffffffffffffffffffffffffffffff021916908373ffffffffffffffffffffffffffffffffffffffff1602179055506020820151816001019081611b65919061271f565b50505050505050565b600080600090505b8280549050811015611bce57828181548110611b9557611b94612c2c565b5b906000526020600020906002020160000154846000015103611bbb576001915050611bd4565b8080611bc690612c8a565b915050611b76565b50600090505b92915050565b600081519050919050565b600082825260208201905092915050565b6000819050602082019050919050565b600081519050919050565b600082825260208201905092915050565b60005b83811015611c40578082015181840152602081019050611c25565b60008484015250505050565b6000601f19601f8301169050919050565b6000611c6882611c06565b611c728185611c11565b9350611c82818560208601611c22565b611c8b81611c4c565b840191505092915050565b600073ffffffffffffffffffffffffffffffffffffffff82169050919050565b6000611cc182611c96565b9050919050565b611cd181611cb6565b82525050565b60006040830160008301518482036000860152611cf48282611c5d565b9150506020830151611d096020860182611cc8565b508091505092915050565b6000611d208383611cd7565b905092915050565b6000602082019050919050565b6000611d4082611bda565b611d4a8185611be5565b935083602082028501611d5c85611bf6565b8060005b85811015611d985784840389528151611d798582611d14565b9450611d8483611d28565b925060208a01995050600181019050611d60565b50829750879550505050505092915050565b60006020820190508181036000830152611dc48184611d35565b905092915050565b600080fd5b600080fd5b600080fd5b600080fd5b600080fd5b60008083601f840112611dfb57611dfa611dd6565b5b8235905067ffffffffffffffff811115611e1857611e17611ddb565b5b602083019150836001820283011115611e3457611e33611de0565b5b9250929050565b60008060008060408587031215611e5557611e54611dcc565b5b600085013567ffffffffffffffff811115611e7357611e72611dd1565b5b611e7f87828801611de5565b9450945050602085013567ffffffffffffffff811115611ea257611ea1611dd1565b5b611eae87828801611de5565b925092505092959194509250565b611ec581611cb6565b8114611ed057600080fd5b50565b600081359050611ee281611ebc565b92915050565b600060208284031215611efe57611efd611dcc565b5b6000611f0c84828501611ed3565b91505092915050565b600081519050919050565b600082825260208201905092915050565b6000819050602082019050919050565b6000819050919050565b611f5481611f41565b82525050565b6000606083016000830151611f726000860182611cc8565b506020830151611f856020860182611f4b565b5060408301518482036040860152611f9d8282611c5d565b9150508091505092915050565b6000611fb68383611f5a565b905092915050565b6000602082019050919050565b6000611fd682611f15565b611fe08185611f20565b935083602082028501611ff285611f31565b8060005b8581101561202e578484038952815161200f8582611faa565b945061201a83611fbe565b925060208a01995050600181019050611ff6565b50829750879550505050505092915050565b6000602082019050818103600083015261205a8184611fcb565b905092915050565b600082825260208201905092915050565b600061207e82611c06565b6120888185612062565b9350612098818560208601611c22565b6120a181611c4c565b840191505092915050565b600060208201905081810360008301526120c68184612073565b905092915050565b600080602083850312156120e5576120e4611dcc565b5b600083013567ffffffffffffffff81111561210357612102611dd1565b5b61210f85828601611de5565b92509250509250929050565b600081519050919050565b600082825260208201905092915050565b6000819050602082019050919050565b600060408301600083015161215f6000860182611cc8565b50602083015184820360208601526121778282611c5d565b9150508091505092915050565b60006121908383612147565b905092915050565b6000602082019050919050565b60006121b08261211b565b6121ba8185612126565b9350836020820285016121cc85612137565b8060005b8581101561220857848403895281516121e98582612184565b94506121f483612198565b925060208a019950506001810190506121d0565b50829750879550505050505092915050565b6000602082019050818103600083015261223481846121a5565b905092915050565b60008115159050919050565b6122518161223c565b82525050565b600060208201905061226c6000830184612248565b92915050565b60008060006040848603121561228b5761228a611dcc565b5b600061229986828701611ed3565b935050602084013567ffffffffffffffff8111156122ba576122b9611dd1565b5b6122c686828701611de5565b92509250509250925092565b600081519050919050565b600082825260208201905092915050565b6000819050602082019050919050565b6000819050919050565b612311816122fe565b82525050565b600060408301600083015161232f6000860182612308565b50602083015184820360208601526123478282611c5d565b9150508091505092915050565b60006123608383612317565b905092915050565b6000602082019050919050565b6000612380826122d2565b61238a81856122dd565b93508360208202850161239c856122ee565b8060005b858110156123d857848403895281516123b98582612354565b94506123c483612368565b925060208a019950506001810190506123a0565b50829750879550505050505092915050565b600060208201905081810360008301526124048184612375565b905092915050565b7f4e487b7100000000000000000000000000000000000000000000000000000000600052602260045260246000fd5b6000600282049050600182168061245357607f821691505b6020821081036124665761246561240c565b5b50919050565b7f416e206163636f756e7420697320726571756972656421000000000000000000600082015250565b60006124a2601783612062565b91506124ad8261246c565b602082019050919050565b600060208201905081810360008301526124d181612495565b9050919050565b7f4e6f7420696e2067726f75702100000000000000000000000000000000000000600082015250565b600061250e600d83612062565b9150612519826124d8565b602082019050919050565b6000602082019050818103600083015261253d81612501565b9050919050565b7f4e487b7100000000000000000000000000000000000000000000000000000000600052604160045260246000fd5b60008190508160005260206000209050919050565b60006020601f8301049050919050565b600082821b905092915050565b6000600883026125d57fffffffffffffffffffffffffffffffffffffffffffffffffffffffffffffffff82612598565b6125df8683612598565b95508019841693508086168417925050509392505050565b6000819050919050565b600061261c61261761261284611f41565b6125f7565b611f41565b9050919050565b6000819050919050565b61263683612601565b61264a61264282612623565b8484546125a5565b825550505050565b600090565b61265f612652565b61266a81848461262d565b505050565b5b8181101561268e57612683600082612657565b600181019050612670565b5050565b601f8211156126d3576126a481612573565b6126ad84612588565b810160208510156126bc578190505b6126d06126c885612588565b83018261266f565b50505b505050565b600082821c905092915050565b60006126f6600019846008026126d8565b1980831691505092915050565b600061270f83836126e5565b9150826002028217905092915050565b61272882611c06565b67ffffffffffffffff81111561274157612740612544565b5b61274b825461243b565b612756828285612692565b600060209050601f8311600181146127895760008415612777578287015190505b6127818582612703565b8655506127e9565b601f19841661279786612573565b60005b828110156127bf5784890151825560018201915060208501945060208101905061279a565b868310156127dc57848901516127d8601f8916826126e5565b8355505b6001600288020188555050505b505050505050565b7f5573657220646f6573206e6f7420657869737421000000000000000000000000600082015250565b6000612827601483612062565b9150612832826127f1565b602082019050919050565b600060208201905081810360008301526128568161281a565b9050919050565b7f416c726561647920696e2067726f757021000000000000000000000000000000600082015250565b6000612893601183612062565b915061289e8261285d565b602082019050919050565b600060208201905081810360008301526128c281612886565b9050919050565b7f4163636f756e7420646f6573206e6f7420657869737421000000000000000000600082015250565b60006128ff601783612062565b915061290a826128c9565b602082019050919050565b6000602082019050818103600083015261292e816128f2565b9050919050565b7f596f7520617265206e6f7420667269656e64732e2e2e00000000000000000000600082015250565b600061296b601683612062565b915061297682612935565b602082019050919050565b6000602082019050818103600083015261299a8161295e565b9050919050565b7f446f6e27742061646420796f757273656c662100000000000000000000000000600082015250565b60006129d7601383612062565b91506129e2826129a1565b602082019050919050565b60006020820190508181036000830152612a06816129ca565b9050919050565b7f416c726561647920667269656e64732100000000000000000000000000000000600082015250565b6000612a43601083612062565b9150612a4e82612a0d565b602082019050919050565b60006020820190508181036000830152612a7281612a36565b9050919050565b7f5573657220657869737473210000000000000000000000000000000000000000600082015250565b6000612aaf600c83612062565b9150612aba82612a79565b602082019050919050565b60006020820190508181036000830152612ade81612aa2565b9050919050565b7f496e707574206e6f6e20656d707479206e69636b6e616d652100000000000000600082015250565b6000612b1b601983612062565b9150612b2682612ae5565b602082019050919050565b60006020820190508181036000830152612b4a81612b0e565b9050919050565b600082905092915050565b612b668383612b51565b67ffffffffffffffff811115612b7f57612b7e612544565b5b612b89825461243b565b612b94828285612692565b6000601f831160018114612bc35760008415612bb1578287013590505b612bbb8582612703565b865550612c23565b601f198416612bd186612573565b60005b82811015612bf957848901358255600182019150602085019450602081019050612bd4565b86831015612c165784890135612c12601f8916826126e5565b8355505b6001600288020188555050505b50505050505050565b7f4e487b7100000000000000000000000000000000000000000000000000000000600052603260045260246000fd5b7f4e487b7100000000000000000000000000000000000000000000000000000000600052601160045260246000fd5b6000612c9582611f41565b91507fffffffffffffffffffffffffffffffffffffffffffffffffffffffffffffffff8203612cc757612cc6612c5b565b5b600182019050919050565b7f6772703a00000000000000000000000000000000000000000000000000000000815250565b600081905092915050565b82818337600083830152505050565b6000612d1e8385612cf8565b9350612d2b838584612d03565b82840190509392505050565b6000612d4282612cd2565b600482019150612d53828486612d12565b91508190509392505050565b6000612d6a82611c06565b612d748185612cf8565b9350612d84818560208601611c22565b80840191505092915050565b6000612d9c8284612d5f565b915081905092915050565b60008160601b9050919050565b6000612dbf82612da7565b9050919050565b6000612dd182612db4565b9050919050565b612de9612de482611cb6565b612dc6565b82525050565b6000612dfb8285612dd8565b601482019150612e0b8284612dd8565b601482019150819050939250505056fea2646970667358221220917605cf446e1aeee6e1d76c83e2e2173f0662f712dafe039e885b85adc5c80064736f6c63430008130033",
  "linkReferences": {},
  "deployedLinkReferences": {}
}